{
  "_format": "hh-sol-artifact-1",
  "contractName": "TripRegistry",
  "sourceName": "contracts/TripRegistry.sol",
  "abi": [
    {
      "anonymous": false,
      "inputs": [
        {
          "indexed": true,
          "internalType": "uint256",
          "name": "tripId",
          "type": "uint256"
        },
        {
          "indexed": true,
          "internalType": "address",
          "name": "creator",
          "type": "address"
        },
        {
          "indexed": false,
          "internalType": "string",
          "name": "meta",
          "type": "string"
        }
      ],
      "name": "TripCreated",
      "type": "event"
    },
    {
      "anonymous": false,
      "inputs": [
        {
          "indexed": true,
          "internalType": "uint256",
          "name": "tripId",
          "type": "uint256"
        },
        {
          "indexed": false,
          "internalType": "enum TripRegistry.Status",
          "name": "status",
          "type": "uint8"
        }
      ],
      "name": "TripStatusUpdated",
      "type": "event"
    },
    {
      "inputs": [
        {
          "internalType": "string",
          "name": "meta",
          "type": "string"
        }
      ],
      "name": "createTrip",
      "outputs": [
        {
          "internalType": "uint256",
          "name": "",
          "type": "uint256"
        }
      ],
      "stateMutability": "nonpayable",
      "type": "function"
    },
    {
      "inputs": [
        {
          "internalType": "uint256",
          "name": "tripId",
          "type": "uint256"
        }
      ],
      "name": "getTrip",
      "outputs": [
        {
          "components": [
            {
              "internalType": "address",
              "name": "creator",
              "type": "address"
            },
            {
              "internalType": "uint256",
              "name": "timestamp",
              "type": "uint256"
            },
            {
              "internalType": "string",
              "name": "meta",
              "type": "string"
            },
            {
              "internalType": "enum TripRegistry.Status",
              "name": "status",
              "type": "uint8"
            }
          ],
          "internalType": "struct TripRegistry.Trip",
          "name": "",
          "type": "tuple"
        }
      ],
      "stateMutability": "view",
      "type": "function"
    },
    {
      "inputs": [],
      "name": "totalTrips",
      "outputs": [
        {
          "internalType": "uint256",
          "name": "",
          "type": "uint256"
        }
      ],
      "stateMutability": "view",
      "type": "function"
    },
    {
      "inputs": [
        {
          "internalType": "uint256",
          "name": "",
          "type": "uint256"
        }
      ],
      "name": "trips",
      "outputs": [
        {
          "internalType": "address",
          "name": "creator",
          "type": "address"
        },
        {
          "internalType": "uint256",
          "name": "timestamp",
          "type": "uint256"
        },
        {
          "internalType": "string",
          "name": "meta",
          "type": "string"
        },
        {
          "internalType": "enum TripRegistry.Status",
          "name": "status",
          "type": "uint8"
        }
      ],
      "stateMutability": "view",
      "type": "function"
    },
    {
      "inputs": [
        {
          "internalType": "uint256",
          "name": "tripId",
          "type": "uint256"
        },
        {
          "internalType": "enum TripRegistry.Status",
          "name": "newStatus",
          "type": "uint8"
        }
      ],
      "name": "updateStatus",
      "outputs": [],
      "stateMutability": "nonpayable",
      "type": "function"
    }
  ],
  "bytecode": "0x608060405234801561001057600080fd5b50611068806100206000396000f3fe608060405234801561001057600080fd5b50600436106100575760003560e01c8063010117051461005c578063292b3d691461008c5780632d6f89d7146100bc5780633a1b3d31146100da578063f6824a7c146100f6575b600080fd5b610076600480360381019061007191906107a5565b610129565b604051610083919061098c565b60405180910390f35b6100a660048036038101906100a19190610a13565b6102d9565b6040516100b39190610a6f565b60405180910390f35b6100c4610491565b6040516100d19190610a6f565b60405180910390f35b6100f460048036038101906100ef9190610aaf565b61049d565b005b610110600480360381019061010b91906107a5565b610620565b6040516101209493929190610b57565b60405180910390f35b610131610715565b6000805490508210610178576040517f08c379a000000000000000000000000000000000000000000000000000000000815260040161016f90610bef565b60405180910390fd5b6000828154811061018c5761018b610c0f565b5b90600052602060002090600402016040518060800160405290816000820160009054906101000a900473ffffffffffffffffffffffffffffffffffffffff1673ffffffffffffffffffffffffffffffffffffffff1673ffffffffffffffffffffffffffffffffffffffff1681526020016001820154815260200160028201805461021590610c6d565b80601f016020809104026020016040519081016040528092919081815260200182805461024190610c6d565b801561028e5780601f106102635761010080835404028352916020019161028e565b820191906000526020600020905b81548152906001019060200180831161027157829003601f168201915b505050505081526020016003820160009054906101000a900460ff1660028111156102bc576102bb6108b2565b5b60028111156102ce576102cd6108b2565b5b815250509050919050565b6000806000805490509050600060405180608001604052803373ffffffffffffffffffffffffffffffffffffffff16815260200142815260200186868080601f016020809104026020016040519081016040528093929190818152602001838380828437600081840152601f19601f82011690508083019250505050505050815260200160006002811115610371576103706108b2565b5b815250908060018154018082558091505060019003906000526020600020906004020160009091909190915060008201518160000160006101000a81548173ffffffffffffffffffffffffffffffffffffffff021916908373ffffffffffffffffffffffffffffffffffffffff1602179055506020820151816001015560408201518160020190816104039190610e79565b5060608201518160030160006101000a81548160ff0219169083600281111561042f5761042e6108b2565b5b021790555050503373ffffffffffffffffffffffffffffffffffffffff16817f9e8874161504a858aca0675f8a3af6faa4e6bb1a07b9af0073503e8559df7fde868660405161047f929190610f87565b60405180910390a38091505092915050565b60008080549050905090565b60008054905082106104e4576040517f08c379a00000000000000000000000000000000000000000000000000000000081526004016104db90610bef565b60405180910390fd5b600082815481106104f8576104f7610c0f565b5b906000526020600020906004020160000160009054906101000a900473ffffffffffffffffffffffffffffffffffffffff1673ffffffffffffffffffffffffffffffffffffffff163373ffffffffffffffffffffffffffffffffffffffff1614610597576040517f08c379a000000000000000000000000000000000000000000000000000000000815260040161058e90610ff7565b60405180910390fd5b80600083815481106105ac576105ab610c0f565b5b906000526020600020906004020160030160006101000a81548160ff021916908360028111156105df576105de6108b2565b5b0217905550817f9ab20b9e20f8478e8766750b45dcff9847959094bd5c25831f113285fae9b50b826040516106149190611017565b60405180910390a25050565b6000818154811061063057600080fd5b90600052602060002090600402016000915090508060000160009054906101000a900473ffffffffffffffffffffffffffffffffffffffff169080600101549080600201805461067f90610c6d565b80601f01602080910402602001604051908101604052809291908181526020018280546106ab90610c6d565b80156106f85780601f106106cd576101008083540402835291602001916106f8565b820191906000526020600020905b8154815290600101906020018083116106db57829003601f168201915b5050505050908060030160009054906101000a900460ff16905084565b6040518060800160405280600073ffffffffffffffffffffffffffffffffffffffff16815260200160008152602001606081526020016000600281111561075f5761075e6108b2565b5b81525090565b600080fd5b600080fd5b6000819050919050565b6107828161076f565b811461078d57600080fd5b50565b60008135905061079f81610779565b92915050565b6000602082840312156107bb576107ba610765565b5b60006107c984828501610790565b91505092915050565b600073ffffffffffffffffffffffffffffffffffffffff82169050919050565b60006107fd826107d2565b9050919050565b61080d816107f2565b82525050565b61081c8161076f565b82525050565b600081519050919050565b600082825260208201905092915050565b60005b8381101561085c578082015181840152602081019050610841565b60008484015250505050565b6000601f19601f8301169050919050565b600061088482610822565b61088e818561082d565b935061089e81856020860161083e565b6108a781610868565b840191505092915050565b7f4e487b7100000000000000000000000000000000000000000000000000000000600052602160045260246000fd5b600381106108f2576108f16108b2565b5b50565b6000819050610903826108e1565b919050565b6000610913826108f5565b9050919050565b61092381610908565b82525050565b60006080830160008301516109416000860182610804565b5060208301516109546020860182610813565b506040830151848203604086015261096c8282610879565b9150506060830151610981606086018261091a565b508091505092915050565b600060208201905081810360008301526109a68184610929565b905092915050565b600080fd5b600080fd5b600080fd5b60008083601f8401126109d3576109d26109ae565b5b8235905067ffffffffffffffff8111156109f0576109ef6109b3565b5b602083019150836001820283011115610a0c57610a0b6109b8565b5b9250929050565b60008060208385031215610a2a57610a29610765565b5b600083013567ffffffffffffffff811115610a4857610a4761076a565b5b610a54858286016109bd565b92509250509250929050565b610a698161076f565b82525050565b6000602082019050610a846000830184610a60565b92915050565b60038110610a9757600080fd5b50565b600081359050610aa981610a8a565b92915050565b60008060408385031215610ac657610ac5610765565b5b6000610ad485828601610790565b9250506020610ae585828601610a9a565b9150509250929050565b610af8816107f2565b82525050565b600082825260208201905092915050565b6000610b1a82610822565b610b248185610afe565b9350610b3481856020860161083e565b610b3d81610868565b840191505092915050565b610b5181610908565b82525050565b6000608082019050610b6c6000830187610aef565b610b796020830186610a60565b8181036040830152610b8b8185610b0f565b9050610b9a6060830184610b48565b95945050505050565b7f496e76616c696420747269704964000000000000000000000000000000000000600082015250565b6000610bd9600e83610afe565b9150610be482610ba3565b602082019050919050565b60006020820190508181036000830152610c0881610bcc565b9050919050565b7f4e487b7100000000000000000000000000000000000000000000000000000000600052603260045260246000fd5b7f4e487b7100000000000000000000000000000000000000000000000000000000600052602260045260246000fd5b60006002820490506001821680610c8557607f821691505b602082108103610c9857610c97610c3e565b5b50919050565b7f4e487b7100000000000000000000000000000000000000000000000000000000600052604160045260246000fd5b60008190508160005260206000209050919050565b60006020601f8301049050919050565b600082821b905092915050565b600060088302610d2f7fffffffffffffffffffffffffffffffffffffffffffffffffffffffffffffffff82610cf2565b610d398683610cf2565b95508019841693508086168417925050509392505050565b6000819050919050565b6000610d76610d71610d6c8461076f565b610d51565b61076f565b9050919050565b6000819050919050565b610d9083610d5b565b610da4610d9c82610d7d565b848454610cff565b825550505050565b600090565b610db9610dac565b610dc4818484610d87565b505050565b5b81811015610de857610ddd600082610db1565b600181019050610dca565b5050565b601f821115610e2d57610dfe81610ccd565b610e0784610ce2565b81016020851015610e16578190505b610e2a610e2285610ce2565b830182610dc9565b50505b505050565b600082821c905092915050565b6000610e5060001984600802610e32565b1980831691505092915050565b6000610e698383610e3f565b9150826002028217905092915050565b610e8282610822565b67ffffffffffffffff811115610e9b57610e9a610c9e565b5b610ea58254610c6d565b610eb0828285610dec565b600060209050601f831160018114610ee35760008415610ed1578287015190505b610edb8582610e5d565b865550610f43565b601f198416610ef186610ccd565b60005b82811015610f1957848901518255600182019150602085019450602081019050610ef4565b86831015610f365784890151610f32601f891682610e3f565b8355505b6001600288020188555050505b505050505050565b82818337600083830152505050565b6000610f668385610afe565b9350610f73838584610f4b565b610f7c83610868565b840190509392505050565b60006020820190508181036000830152610fa2818486610f5a565b90509392505050565b7f4f6e6c792063726561746f722063616e20757064617465000000000000000000600082015250565b6000610fe1601783610afe565b9150610fec82610fab565b602082019050919050565b6000602082019050818103600083015261101081610fd4565b9050919050565b600060208201905061102c6000830184610b48565b9291505056fea2646970667358221220d7cf7f66c7f7a37e69fac84c5b748062f34ec515b9eb8885c18531f52d45fcaa64736f6c63430008130033",
  "linkReferences": {},
  "deployedLinkReferences": {}
}